:020000040000FA
:02000000552881
:040002000034003492
:020008000528C9
:06000A00A8000308031327
:100010008312A9000408AA000A08AB008A018B1801
:100020001C208C1852202B088A002A0884002908DA
:100030008300A80E280E0900A601A701A501013022
:100040008A0022088221A300861C29282007A000FC
:100050002B282002A000403020020319A001230811
:10006000403C20020318A00201308A002008002131
:10007000A300861C230D06068039860623080F3947
:10008000850001308A0020084121A300861C230D31
:10009000060640398606A30D230D06063C39860662
:1000A0008B100800A5178C100800A001A201A30165
:1000B000A601A701A5018501860107309F00031352
:1000C0008316F03085000330860040308100023016
:1000D0008C0083127F309200D0308B00640000309F
:1000E000051E0130A200851E6E28A51F6E28A513CF
:1000F000260FA703A70AA6002704A600031D6E2843
:10010000A700031D6E28A50A251E6E28A501003034
:0E0110000F398500003006063C3986066E2841
:10020000820740340134023404340534073408349E
:1002100009340A340B340C340D340D340E340E34DE
:100220000E340F340E340E340E340D340D340C34C1
:100230000B340A34093408340734053404340234E6
:1002400001348034C134C234C434C534C734C834F2
:10025000C934CA34CB34CC34CD34CD34CE34CE349E
:10026000CE34CF34CE34CE34CE34CD34CD34CC3481
:10027000CB34CA34C934C834C734C534C434C234A6
:10028000C13482076F346E346E346E346D346D3425
:100290006C346B346A34693468346734653464347C
:1002A00062346134203401340234043405340734B8
:1002B000083409340A340B340C340D340D340E3444
:1002C0000E340E340F340E340E340E340D340D341F
:1002D0000C340B340A34093408340734053404343C
:1002E0000234013440346134623464346534673438
:1002F000683469346A346B346C346D346D346E3404
:0A0300006E346E34820704340834B2
:02400E00463F2B
:00000001FF
